:020000040800F2
:100000000004002047010008F9030008FB03000872
:10001000FF030008030400080704000800000000B4
:100020000000000000000000000000000B040008B9
:100030000D040008000000000F040008110400086F
:1000400067010008670100086701000867010008F0
:1000500067010008670100086701000867010008E0
:1000600067010008670100086701000867010008D0
:1000700067010008670100086701000867010008C0
:1000800067010008670100086701000867010008B0
:1000900067010008670100086701000867010008A0
:1000A0006701000867010008670100086701000890
:1000B00067010008130400086701000867010008D1
:1000C0006701000867010008670100086701000870
:1000D0006701000833040008670100086701000891
:1000E0006701000867010008670100086701000850
:1000F0006701000867010008670100086701000840
:10010000670100086701000867010008670100082F
:10011000670100086701000867010008670100081F
:10012000670100086701000867010008670100080F
:10013000DFF80CD003F026FA0048004775010008EC
:10014000D8030020704708488047084981F3088891
:1001500007480047FEE7FEE7FEE7FEE7FEE7FEE7AB
:10016000FEE7FEE7FEE7FEE745010008D8030020B2
:100170003101000802F00AFE00F0BEF900F026FB93
:1001800000F036FB00F092FB00F0A5FB0020774961
:1001900008600121022001F0EEF90121744802F00B
:1001A00090FA00F02AFCDFE072480078012815D1AF
:1001B0000020704908707049087006E000BF4021B7
:1001C0006E4801F0A5FB0028F9D06D490878411E62
:1001D0006B4A11700028F1D1114608704FF0804130
:1001E0006848006802F054FE0446674803682246E7
:1001F0004FF45C614FF4027000F02BFE634908601D
:1002000000206349086063484188634802685F488A
:10021000006800F0D7FCA2E05B48006803F056F8E5
:1002200006465E4A5E4B02F065FE044603F08AF81D
:100230005549086058480068401C574908605948AB
:10024000006830B15748006800F083FD55490860E8
:1002500003E04FF400605349086053480068401EB3
:100260004D490968884211D24F4800684A490860E0
:100270004E4800684B490968401A04D14A48006852
:100280004549086002E0002043490860454800688D
:100290004649086046480068401C454908603D489A
:1002A00000884449086042480068062854DD42A09E
:1002B00003F0A6F93748018841A003F0A1F93548B9
:1002C00041883FA003F09CF9314801683CA003F04D
:1002D00097F93049C88802F09EFF804602F0F6FF89
:1002E00006464FF06632374B02F0ABFE0446002262
:1002F000354B02F018FF354A03C234480CC8344865
:10030000344902F098FE0646334A344B02F00BFFA4
:1003100004460022324B02F0EDFD2C4A03C20022BB
:10032000304B2A4903C902F0FEFE044602F0AFFF3B
:100330002D4908600846016821A003F061F92B48A7
:1003400001681FA003F05CF929A003F059F900F03F
:1003500068FA002016490860002004490860034834
:10036000006801283FF458AF1EE700000800002095
:10037000000400400100002002000020003801407D
:1003800000000020700000207400002058000020B1
:100390004C0000207E000020280000207B14AE4787
:1003A000E17A843F3C0000202C000020480000201F
:1003B0006000002068000020313030300000000074
:1003C0002C25640066660A400000B0401000002042
:1003D000E17A14AE47E1F63F158C4AEA0434713FE6
:1003E000000039400000F03F1800002050000020BD
:1003F0002C31303030000000704700BFFEE700BFF6
:10040000FEE700BFFEE700BFFEE77047704770479A
:10041000704710B501212E4802F031FC40B1012196
:100420002B4802F03DFC2B480068401C294908601D
:1004300010BD10B500BF40F22551274801F074FAF5
:1004400098B32548001D0088C1B22448027800787E
:10045000401C224B1870224881540020214908601A
:100460001EE01F481F490968405C1F491D4A126869
:1004700088541B491B480068401D085C1B49194AE9
:10048000126888541649174800680A30095C1848F1
:10049000144A1268815413480068401C11490860CE
:1004A000104800680528DCDB10E0FFE740F224413B
:1004B000094801F039FA48B107480088C4B2064833
:1004C000001D0088C4B201200A49087010BD000058
:1004D0000004004008000020003801400000002017
:1004E0005401002078000020B8010020C201002043
:1004F000CC0100200100002000B587B0012144F2AA
:10050000040001F02BF84FF40070ADF8180018202B
:100510008DF81B0003208DF81A0006A95C4800F036
:1005200081FD4FF48060ADF8180004208DF81B00A9
:1005300006A9574800F076FD4FF4E1300290002004
:10054000ADF80C00ADF80E00ADF81000ADF81400D9
:100550000C20ADF8120002A94E4801F0ACF80122BF
:1005600040F224414B4801F020F9012240F225518C
:10057000484801F01AF94FF4E06001F043FD2520EE
:100580008DF8040000208DF8050001208DF806008C
:100590008DF8070001A801F03AFD40213D4801F027
:1005A000C0F901213B4801F0F4F807B000BD10B5D7
:1005B00004462146374801F054F900BF4021354830
:1005C00001F0A6F90028F9D010BD10B500BF202118
:1005D000304801F09DF90028F9D02E4801F045F986
:1005E000C0B210BD70B504460D46E1B2294801F015
:1005F00038F900BF2748008800F080000028F9D0B3
:10060000204670BD06E0002101E04A1CD1B2482915
:10061000FBDB401E0028F6DC704700B5034604E013
:100620004FF47A70FFF7EEFF5B1E002BF8DC00BD85
:1006300010B504464021174801F073F921461548CA
:1006400001F00FF900BF8021124801F061F9002884
:10065000F9D010BD10B5044620210E4801F058F91C
:1006600008B9002010BD0B4801F0FFF820700120F0
:10067000F8E710B504E008480178064801F0F1F801
:100680000548FFF7E7FF0028F5D10348007810BDC3
:1006900000080140003801407C00002008B501211D
:1006A000042000F05BFF0720ADF8000000208DF86B
:1006B000030069464A4800F0B5FC08BD00B591B09A
:1006C0000121084600F03DFF0121480200F046FFED
:1006D0004FF4004000F0A6FE424801F073FB424890
:1006E00001904248029000200390042004900020D2
:1006F0000590802006904000079080000890202000
:10070000099000020A9000200B9001A9354801F0E1
:10071000F2FB00200C9001208DF834008DF835009C
:10072000C0040E9000200F9004208DF840000CA90A
:100730002D484C3801F05BF9012001F003FB052343
:100740000122002128484C3801F0E9F90523022252
:10075000012125484C3801F0E2F90523032202214A
:1007600021484C3801F0DBF90723042210211E48F0
:100770004C3801F0D4F901211B484C3801F06EF9D6
:10078000012119484C3801F05EF917484C3801F046
:100790007CF900BF14484C3801F07CF90028F9D1ED
:1007A00011484C3801F080F900BF0F484C3801F077
:1007B00080F90028F9D101210B484C3801F083F968
:1007C0000121084801F0C2FB11B000BD10B5064878
:1007D0004C3801F0DFF8FFF761FFFFF76FFF10BD46
:1007E00000080140080002404C2401407E00002027
:1007F00008B50121082000F0B1FE4FF48050ADF89B
:10080000000010208DF8030003208DF802006946D7
:10081000254800F007FC4FF48051234800F0AFFC5E
:1008200008BD10B54FF480511F4800F09BFCC0F18B
:100830000100C4B222464FF480511B4800F0A3FCD3
:1008400010BD10B500224FF48051174800F09BFCFA
:1008500010BD10B501221103134800F094FC10BD27
:10086000002107E0002101E04A1CD1B20229FBDB94
:10087000421E90B20028F5DC704700B5034603E045
:100880004FF47A70FFF7ECFF1800A3F101018BB26F
:10089000F6D100BD10B5FFF7D4FF0A20FFF7EDFF3A
:1008A000FFF7D7FF10BD0000000C014008B54FF462
:1008B000E06001F0A7FB1D208DF8000000208DF8FE
:1008C000010003208DF8020001208DF80300684626
:1008D00001F09DFB08BD0EB50121022000F04BFE8A
:1008E000154801F0FDFB40F60450ADF80400472028
:1008F000ADF800000020ADF80600ADF80200694632
:100900000D4801F058FC01208DF8080020210A480C
:1009100002F067F90121084802F0AEF90122114600
:10092000054801F0E9FE0121034801F0CAFE00215B
:10093000022000F020FE0EBD0004004008B5012199
:10094000C80200F00BFE0121042000F007FE4FF466
:100950001060ADF8000018208DF8030003208DF81A
:1009600002006946934800F05DFB08BD30B587B0D2
:100970000025002440F60450ADF814004720ADF8DF
:1009800010000020ADF81600ADF8120004A98A4846
:1009900001F011FC6020ADF800000120ADF802006C
:1009A0000420ADF80400ADF806500020ADF80800B2
:1009B0000820ADF80A004001ADF80C000020ADF8A9
:1009C0000E0069467C4801F00FFCADF80640694610
:1009D000794801F0D2FC0821774801F0A3FF0121FA
:1009E000754801F06FFF0121734801F06AFE012193
:1009F000714801F072FE07B030BD10B5FFF79EFFE1
:100A0000FFF7B4FF10BD002106E0002101E04A1C01
:100A1000D1B20A29FBDB401E0028F6D1704700B591
:100A2000034604E04FF47A70FFF7EDFF5B1E002BE6
:100A3000F8D100BD42F210705F49343108800020C7
:100A4000091D0880704710B500205B4934310880CB
:100A5000091D088000240BE0C8206043564934314A
:100A600008800020091D08801420FFF7D8FF641CAF
:100A7000642CF1D900240DE0C4F16400C82148437E
:100A80004D49343108800020091D08801420FFF7EB
:100A9000C6FF641C642CEFD900240BE000204649FB
:100AA00034310880C8206043091D08801420FFF7F6
:100AB000B6FF641C642CF1D900240EE000203E49EE
:100AC00034310880C4F16400C82148433A493831C0
:100AD00008801420FFF7A3FF641C642CEED910BD1E
:100AE000364908600021344A34321180334909887C
:100AF000314A4032118070473049086009882E4AD7
:100B00003432118000212C4A40321180704710B5D8
:100B10000346002403B90123002B05DD40F2726473
:100B20002046FFF7E9FF04E040F272642046FFF739
:100B3000D7FF10BD00202049343108801E494031C4
:100B400008807047904201DD104604E0884201DAD7
:100B5000084600E000BF7047194A5288881A642886
:100B60000DDD00EB80024FF6FF7303EA4202124BE9
:100B700034331A800022104B40331A8018E010F1F1
:100B8000640F0EDA00220C4B34331A80424202EB1F
:100B900082024FF6FF7303EA4202074B40331A808A
:100BA00006E00022044B34331A80034B40331A8092
:100BB0007047000000080140002C01405000002058
:100BC0007E0000202DE9F0478AB00446894692460F
:100BD000C948C0F800A001460968C84A1268881AC6
:100BE00002F02FFBC64A03C2A4EB090002F018FB77
:100BF000C44A03C2C348C4490CC803C902F07AF905
:100C0000C14A03C2C148BF490CC803C902F013FA64
:100C1000BF4A03C20022BF4BBA4903C902F06AFBB4
:100C200012D20022BC4BB74903C902F077FB0BD2AA
:100C30000021BA4A116051600020B94A106050602A
:100C4000B84A1060506021E00021B748B34AC2E9B9
:100C50000010B649B648B34AC2E900100022B54BAD
:100C6000A84903C902F05AFB06D30022B24BA5499A
:100C700003C902F03FFB04D20020A94A1060506073
:100C800004E0AE49AE48A64AC2E900109E48A44915
:100C90000CC803C902F0D5F9CDE906019C48A14969
:100CA0000CC803C902F0CDF9CDE9020196489C4970
:100CB0000CC803C902F0C5F9CDE900019148974974
:100CC0000CC803C902F0BDF90746DDE9002302F0B4
:100CD00011F90546DDE9022302F00CF9CDE9040122
:100CE000DDE9062302F006F9CDE9080102F0CFFAAA
:100CF000944908608348D0E90010844AC2E9001092
:100D00009048006802F07EFA05468F480168284640
:100D100002F03EFB05D28C48006802F09FFA894938
:100D200008608848006802F06DFA05468748016847
:100D3000284602F023FB05D28448006802F08EFAB0
:100D4000804908607F480068FFF7E1FE0AB0BDE80F
:100D5000F08740F6D861884200DD0846B0F5967FFE
:100D600001DA4FF49670B0F5967F04DB40F6D86157
:100D7000884200DC00BF70472DE9F04F91B0064675
:100D8000894614461D4605FB05F101FB05F002F0FE
:100D900047FA07468846A9EB060002F041FACDE97A
:100DA000080104FB04F101FB04F002F039FA0246E9
:100DB0000B46CDE9040100204FF0804102F0B3F969
:100DC000CDE90601DDE9082302F03BF982463A4607
:100DD000434602F036F9CDE90C0105FB05F002F0BF
:100DE0001FFACDE90401A9EB060002F019FACDE9DA
:100DF000020104FB04F002F013FA02460B46CDE9AF
:100E000000010020434902F08EF90746DDE9022384
:100E100002F017F98246DDE9042302F012F9CDE968
:100E20000801304602F0FCF9CDE90601DDE90823AE
:100E300002F060F8CDE90A01DDE90C2302F0FBF8CD
:100E4000CDE90E0102F023FA1090109811B0BDE820
:100E5000F08F2DE9F04F91B004460D4691461E46A5
:100E6000281B00EBD07149100F913146484602F023
:100E700009F80E9000210E9802F080FA03D80020A5
:100E80003349086003E03248006831490860204671
:100E900002F0C6F9A5EB040BCDE90A010BEBDB71FF
:100EA000481002F0BDF9CDE90601304602F00EFA15
:100EB000CDE9000102F09EFF074688460F9802F038
:100EC000AFF93A464346CDE9020102F0BAF8CDE95E
:100ED0000401DDE9062302F00DF8CDE90801DDE9A2
:100EE0000A2302F007F8CDE90C0102F0D0F982469E
:100EF000504611B0BDE8F08F280100208800002086
:100F000020010020C800002098000020A000002040
:100F1000C000002000000840000008C0A800002019
:100F2000B0000020B8000020000049409A9999992B
:100F30009999B93F00804B4000804BC0F168E3882D
:100F4000B5F8E43E100100203001002034010020FB
:100F50007400002010B50446C649601A8C422FD098
:100F600009DCC548204480B1B0F5806F16D0B0F5DB
:100F7000006F4AD11BE0B0F5806F2AD0B0F5006F4A
:100F800030D0B0F5406F40D135E00121042000F0B1
:100F9000FFFA0021042000F0FBFA37E001210820CD
:100FA00000F0F6FA0021082000F0F2FA2EE001210C
:100FB000102000F0EDFA0021102000F0E9FA25E001
:100FC0000121202000F0E4FA0021202000F0E0FAC6
:100FD0001CE00121402000F0DBFA0021402000F05D
:100FE000D7FA13E00121802000F0D2FA00218020FE
:100FF00000F0CEFA0AE00121080200F0C9FA00214F
:101000004FF4807000F0C4FA00E000BF00BF10BDD4
:1010100010B50121084600F0BBFA0021012000F0C4
:10102000B7FA10BD2DE9F041024600250026002048
:1010300000230024002791F803C00CF00F0591F85D
:1010400003C00CF0100CBCF1000F03D091F802C0EB
:101050004CEA050591F800C0BCF1000F31D01468CE
:1010600000202BE04FF0010C0CFA00F3B1F800C0A7
:101070000CEA03069E4220D183004FF00F0C0CFABD
:1010800003F7BC4305FA03FC4CEA040491F803C0DF
:10109000BCF1280F06D14FF0010C0CFA00FCC2F88D
:1010A00014C00AE091F803C0BCF1480F05D14FF01D
:1010B000010C0CFA00FCC2F810C0401C0828D1D367
:1010C0001460B1F800C0BCF1FF0F34DD546800209B
:1010D0002EE000F1080C4FF0010808FA0CF3B1F80B
:1010E00000C00CEA03069E4221D183004FF00F0C92
:1010F0000CFA03F7BC4305FA03FC4CEA040491F82C
:1011000003C0BCF1280F05D100F1080C08FA0CF857
:10111000C2F8148091F803C0BCF1480F07D100F168
:10112000080C4FF0010808FA0CF8C2F81080401CB7
:101130000828CED35460BDE8F0814FF6FF710180DE
:10114000022181700421C17070470246002093681B
:101150000B400BB1012000E0002070470146886879
:1011600080B2704702460020D3680B400BB10120CB
:1011700000E0002070470146C86880B270470161F6
:101180007047416170470AB1016100E041617047F9
:10119000C16070474FF480320A438261816182618D
:1011A00082698269704702460020344B18684FF606
:1011B0008073184040EA02100843304B18607047B3
:1011C0002F49C8617047F0B50A460023002400216A
:1011D00000252A4E7168C0F3034583B200F440161F
:1011E000B6F5401F08D121F07061244E766826F0D4
:1011F0007066224F7E6012E000F48016B6F5801F04
:1012000006D1032606FA05F4A14341F0706106E019
:10121000460D360103FA06F6B14341F0706122B182
:10122000460D360103FA06F63143144E7160F0BDE7
:1012300030B500228B071C0F0F2303FA04F20F4B6B
:1012400008338C1053F8243093430C4C08348D1021
:1012500044F8253023468C1053F824308C07240F93
:1012600000FA04F42343054C08348D1044F825306B
:1012700030BD00000014014000F8FEBF0000014036
:1012800000002042DE48006840F00100DC490860B0
:1012900008464068DB490840D9494860084600686C
:1012A000D9490840D64908600846006820F48020E3
:1012B00008600846406820F4FE004860002088600E
:1012C0007047CF49096821F48031CD4A1160114639
:1012D000096821F480211160B0F5803F03D0B0F59A
:1012E000802F0ED106E0C649096841F48031C44A16
:1012F000116007E0C249096841F4A021C04A1160A9
:1013000000E000BF00BF704710B501460022002377
:1013100000204A11012A02D1B94C236806E0022AB2
:1013200002D1B74C236A01E0B54C636A01F01F0299
:10133000012494401C400CB1012000E0002010BDAD
:1013400038B5002000900024002500BF3120FFF7B1
:10135000DBFF05460098401C00901DB90098B0F5D1
:10136000A06FF3D13120FFF7CFFF08B1012400E0D7
:101370000024204638BD01460020A14A106820F014
:10138000F80040EAC10010607047A049086070474B
:10139000024600209A4B586820F47C1042EA010370
:1013A0001843974B58607047984908667047014644
:1013B0000020934A506820F00300084350607047B3
:1013C0008F48406800F00C007047014600208C4AAE
:1013D000506820F0F000084350607047014600203C
:1013E000874A506820F4E060084350607047014627
:1013F0000020834A506820F4605040EAC1005060E9
:10140000704729B17E4A527A02437D4B5A7204E0FA
:101410007B4A527A82437A4B5A7270477B49D83161
:101420000860704701460020754A506820F440402B
:101430000843506070470021714A20321170704A91
:1014400082F82010012802D004280AD104E00121EA
:101450006B4A2032117005E00521694A2032117073
:1014600000E000BF00BF70476949086070476449E9
:10147000096A0143624A116270476549443908604C
:10148000704730B500210022002400235C4D6D68B8
:1014900005F00C0121B1042905D0082923D105E06C
:1014A0005C4D056022E05B4D05601FE0544D6D68AA
:1014B00005F47012022505EB9242514D6D6805F45A
:1014C00080341CB9544D554305600BE04C4D6D689C
:1014D00005F400351DB1504D5543056002E04D4DFA
:1014E0005543056002E04B4D056000BF00BF444D11
:1014F0006D6805F0F0010909484D6B5C0568DD4039
:1015000045603F4D6D6805F4E061090A434D6B5C31
:101510004568DD4085603A4D6D6805F46051C90A43
:101520003E4D6B5C4568DD40C560354D6D6805F42A
:101530004041890B3A4D6B5CC568B5FBF3F505611D
:1015400030BD29B12E4A526902432D4B5A6104E045
:101550002B4A526982432A4B5A61704729B1284A63
:1015600092690243264B9A6104E0254A92698243BC
:10157000234B9A61704729B1214AD2690243204B1B
:10158000DA6104E01E4AD26982431D4BDA6170477A
:1015900029B11B4AD2680243194BDA6004E0184AA9
:1015A000D2688243164BDA60704729B1144A126937
:1015B0000243134B1A6104E0114A12698243104B33
:1015C0001A61704712494039086070470F49C86472
:1015D00070470B49C87170470948406A40F08070F5
:1015E00007494862704701460020054A92680A4050
:1015F0000AB1012000E0002070470149887270475D
:10160000001002400000FFF8FFFFF6FE000042421B
:101610008004424200127A0000093D003801002097
:101620004801002010B50446D749601A8C422BD0DF
:1016300006DCD648204498B1B0F5806F38D119E067
:10164000B0F5806F2AD0B0F56C4F31D101218803FD
:10165000FFF79EFF00214FF48040FFF799FF28E03D
:1016600001214804FFF7A1FF00214FF40030FFF7EC
:101670009CFF1EE001218804FFF797FF00214FF433
:101680008020FFF792FF14E00121C804FFF78DFFCF
:1016900000214FF40020FFF788FF0AE00121080530
:1016A000FFF783FF00214FF48010FFF77EFF00E07B
:1016B00000BF00BF10BD2DE9F04786B005460E46BD
:1016C0000024A24600BF00BF00272F462C8A4CF6FC
:1016D000FF700440F08804432C82AC894EF6F3106E
:1016E0000440B08831890843718908430443AC81C0
:1016F000AC8A4FF6FF400440B0890443AC8201A895
:10170000FFF7BFFEA248874202D1DDF810A001E03A
:10171000DDF80CA00AEBCA0000EB0A103168890062
:10172000B0FBF1F86420B8FBF0F00401200964215B
:1017300001FB1089322000EB0910B0FBF1F000F042
:101740000F0004432C8106B0BDE8F0874FF416511A
:10175000016000218180C18001810C214181002133
:101760008181704710B502460020108A4FF2FF03B6
:1017700018400B884C8823438C882343CC88234310
:101780001843108210BD0021018041808180C180FA
:10179000704721B1828942F40052828104E082893B
:1017A0004DF6FF731A4082817047F0B5034600245E
:1017B0000026002500201846C1F3421401F01F0640
:1017C000012707FA06F5012C01D10C3004E0022CA8
:1017D00001D1103000E014301AB107682F430760C0
:1017E00002E00768AF430760F0BD1AB1838A0B437C
:1017F000838202E0838A8B4383827047028A4FF69A
:10180000F0731A400282028A0A4302827047828978
:101810004FF2FF731A40828182890A4382817047A6
:1018200021B1828942F00202828104E082894FF66E
:10183000FD731A4082817047028A4FF6DF731A40A7
:101840000282028A0A430282704721B1028A42F46C
:101850008042028204E0028A4BF6FF731A40028241
:101860007047C1F308028280704701468888C0F340
:1018700008007047818941F0010181817047028B26
:10188000D2B20283028B42EA012202837047028BAA
:1018900002F47F420283028B0A430283704721B124
:1018A000828A42F02002828204E0828A4FF6DF734D
:1018B0001A408282704721B1828A42F010028282ED
:1018C00004E0828A4FF6EF731A408282704721B19A
:1018D000828A42F00802828204E0828A4FF6F7731D
:1018E0001A4082827047828A4FF6FB731A408282C6
:1018F000828A0A438282704721B1828A42F00202C0
:10190000828204E0828A4FF6FD731A408282704719
:101910000246002013880B400BB1012000E000209C
:101920007047CA430280704770B502460B460024D8
:10193000002100250020C3F3421503F01F010126FA
:1019400006FA01F1012D02D19689314006E0022DFF
:1019500002D1168A314001E0968A31401C120126DC
:1019600006FA04F41688344011B10CB1012000E0ED
:10197000002070BD10B5002200230A1201249440FB
:10198000A3B2DC43048010BD004C004000BCFFBF8C
:101990000038014010B50446F748204430B1B0F596
:1019A000806F0DD0B0F5C05F1ED113E00121480259
:1019B000FFF7EEFD00214FF40070FFF7E9FD14E0A2
:1019C00001218802FFF7E4FD00214FF48060FFF75A
:1019D000DFFD0AE00121C803FFF7DAFD00214FF423
:1019E0000040FFF7D5FD00E000BF00BF10BD30B5DF
:1019F0000246002000235068E04C20400D790C681E
:101A000044EA0524204350609068DD4C2040D1E931
:101A100002542C434D7944EA450420439060D06A37
:101A200020F470000C7C641E1C43E3B240EA0350B7
:101A3000D06230BD00210160017141718160C160DF
:101A400001210174704721B1826842F00102826075
:101A500003E0826822F001028260704721B182684F
:101A600042F48072826003E0826822F480728260B5
:101A7000704710B50023CBB21AB144681C434460D0
:101A800002E044689C43446010BD816841F0080155
:101A900081607047014600208A6802F008020AB19E
:101AA000012000E000207047816841F0040181605E
:101AB0007047014600208A6802F004020AB1012042
:101AC00000E00020704721B1826842F4A0028260E9
:101AD00003E0826822F4A002826070470146002081
:101AE0008A6802F480020AB1012000E000207047F9
:101AF00010B50A4600210023416821F46041531EBD
:101B000041EA4331416010BD21B1426842F40062B4
:101B1000426003E0426822F4006242607047F0B520
:101B200004460D4600200021092D11DDE068A5F1D5
:101B30000A0606EB4607072606FA07F18843A5F1D1
:101B40000A0606EB460603FA06F10843E0600CE0DD
:101B5000206905EB4507072606FA07F1884305EBE0
:101B6000450603FA06F108432061072A0FDA606B85
:101B7000561E06EB86071F2606FA07F18843561EF7
:101B800006EB860605FA06F10843606322E00D2A9B
:101B90000FDA206BD61F06EB86071F2606FA07F121
:101BA0008843D61F06EB860605FA06F10843206334
:101BB00010E0E06AA2F10D0606EB86071F2606FA82
:101BC00007F18843A2F10D0606EB860605FA06F139
:101BD0000843E062F0BD21B1826842F48012826065
:101BE00003E0826822F48012826070470146C86C6C
:101BF00080B2704763480068704721B1426842F480
:101C00008062426003E0426822F480624260704772
:101C100021B1426842F48052426003E0426822F4FB
:101C20008052426070470A460021816821F4E041F9
:101C300011438160704721B1826842F400428260A2
:101C400003E0826822F400428260704721B182681A
:101C500042F40212826003E0826822F4021282607F
:101C60007047014600208A6802F400120AB1012080
:101C700000E000207047F0B5044615460020002221
:101C80000026092911DDE068A1F10A0707EB470CDE
:101C9000072707FA0CF29043A1F10A0707EB470761
:101CA00003FA07F21043E0600CE0206901EB410CFD
:101CB000072707FA0CF2904301EB410703FA07F2FA
:101CC00010432061A06BC0F30156EF1C06F1010C1C
:101CD000A7EB0C0707EB870C1F2707FA0CF29043C2
:101CE000EF1C06F1010CA7EB0C0707EB870701FAC5
:101CF00007F21043A063F0BD10B50A46002100238F
:101D0000816B21F44011531E41EA0351816310BDE0
:101D10004250704702465018806A80B270470A46A7
:101D200000214168184B19401143416070474162DE
:101D3000826270470A460021416821F01F01114369
:101D40004160704740B10F494439096841F40001CE
:101D50000C4A443A116007E00A494439096821F401
:101D60000001084A443A1160704702460020136897
:101D70000B405BB101200AE000DCFEBFFFFEF0FF7C
:101D8000FDF7F1FF4C240140FFFD3FFF00207047AD
:101D9000CA430260704770B5024600200023002449
:101DA0000B125568CEB205EA060415681D4015B140
:101DB0000CB1012000E0002070BD00220A12D343C4
:101DC00003607047016821F001010160002101609A
:101DD00041608160C160874A811A90425BD012DC09
:101DE000854AA0EB020190423AD007DC83490144C6
:101DF000D9B1142922D028297AD128E0142938D041
:101E0000282975D13EE0B1F56C7F5BD006DCB1F5D9
:101E1000627F49D0B1F5677F6AD14CE0B1F5717F3F
:101E200057D0B1F5767F63D15BE073494439496897
:101E300041F00F01704A443A51605AE06E4944390A
:101E4000496841F0F0016C4A443A516051E06A49F6
:101E50004439496841F47061674A443A516048E046
:101E600065494439496841F47041634A443A5160D4
:101E70003FE061494439496841F470215E4A443A7F
:101E8000516036E05C494439496841F470015A4A6E
:101E9000443A51602DE058494439496841F0706135
:101EA000554A443A516024E05549096841F00F0110
:101EB000534A11601DE05249096841F0F001504A4F
:101EC000116016E04E49096841F470614C4A116096
:101ED0000FE04B49096841F47041494A116008E03C
:101EE00006E04749096841F47021454A116000E065
:101EF00000BF00BF704710B50022026847F6F073BC
:101F00009A430C6A8B6823430C6923434C6923432F
:101F10008C692343CC6923434C6A23438C6A234353
:101F20001A430260CB6843600B6883604B68C360F0
:101F300010BD0021016041608160C16001614161AB
:101F40008161C161016241628162704721B10268B1
:101F500042F00102026003E0026822F00102026026
:101F600070471AB103680B43036002E003688B43B8
:101F7000036070470146486880B270470146002000
:101F8000002201F080531BB11D4B1B1F1A6802E099
:101F9000194B443B1A6802EA01030BB1012000E02F
:101FA0000020704700F0805111B11549086002E02F
:101FB000114944394860704701460020002201F071
:101FC00080531BB10E4B1B1F1A6802E00A4B443BA7
:101FD0001A6802EA01030BB1012000E000207047FB
:101FE00000F0805111B10649086002E0024944390D
:101FF000486070478000024044000240F8FFFDBF87
:102000000404024031490143314A1160704770B500
:10201000002100230F22C47804B32D4C246804F45B
:10202000E064C4F5E064210AC1F10403CA404478C5
:1020300004FA03F18478144021430901254C067801
:10204000A155047804F01F050124AC4005786D11FA
:10205000AD0005F1E025C5F8004109E0047804F081
:102060001F050124AC401C4D0678761145F826402A
:1020700070BD1A4A0A400243154B1B1F1A60704775
:1020800039B1134A121D12680243114B1B1D1A600D
:1020900006E00F4A121D126882430D4B1B1D1A6089
:1020A0007047042808D14FF0E021096941F004018C
:1020B0004FF0E022116107E04FF0E021096921F0C3
:1020C00004014FF0E0221161704700000000FA05A2
:1020D0000CED00E000E400E080E100E080FFFF1F85
:1020E00010B50446F749601A8C4245D00CDCB4F1B7
:1020F000804F1DD0F448204418B3B0F5806F29D02C
:10210000B0F5006F54D12EE0B0F5806F3DD0B0F542
:102110008E3F03D0B0F5923F4AD13FE00121C80283
:10212000FFF736FA00214FF40060FFF731FA40E084
:1021300001210846FFF739FA00210120FFF735FA9F
:1021400037E001210220FFF730FA00210220FFF7DB
:102150002CFA2EE001210420FFF727FA00210420A9
:10216000FFF723FA25E001210820FFF71EFA0021DE
:102170000820FFF71AFA1CE001211020FFF715FADA
:1021800000211020FFF711FA13E001212020FFF7B2
:102190000CFA00212020FFF708FA0AE00121480389
:1021A000FFF7F6F900214FF40050FFF7F1F900E0D6
:1021B00000BF00BF10BD028802F08F020280CA88F3
:1021C0004B881A4303881A4302808A8882850A88CA
:1021D0000285BE4A904202D0BD4A904201D10A7A9D
:1021E000028601228282704770B5002400220023FB
:1021F000058C4FF6FE7635400584028C8388048B6F
:102200004FF68F752C400D882C43751E2A400D8982
:102210002A434D882A43CD888586AC4DA84202D0FA
:10222000AB4DA84213D14FF6F7752A404D892A438A
:102230004FF6FB752A408D882A4347F6FF652B40F1
:1022400047F6FF552B408D892B43CD892B43838047
:102250000483028470BD70B5002400220023058C25
:102260004FF6EF7635400584028C8388048B48F660
:10227000FF752C400D884FF6FF7606EA05252C43A6
:102280004FF6DF752A400D8906EA05152A434D8869
:1022900006EA05152A43CD8805878C4DA84202D051
:1022A0008B4DA8421DD14FF67F752A404D894FF6C0
:1022B000FF7606EA05152A434FF6BF752A408D883A
:1022C00006EA05152A4347F6FF352B4047F2FF750E
:1022D0002B408D8906EA85052B43CD8906EA8505C5
:1022E0002B4383800483028470BD70B500240022D8
:1022F0000023058C4FF6FF6635400584028C8388E9
:10230000848B4FF68F752C400D882C434FF6FF556C
:102310002A400D894FF6FF7606EA05252A434D88A7
:1023200006EA05252A43CD888587684DA84202D054
:10233000674DA8421DD14FF2FF752A404D894FF6D7
:10234000FF7606EA05252A434FF6FF352A408D8899
:1023500006EA05252A4346F6FF752B4045F6FF752C
:102360002B408D8906EA05152B43CD8906EA051514
:102370002B4383808483028470BD70B500240022C7
:102380000023058C4EF6FF7635400584028C838849
:10239000848B48F6FF752C400D884FF6FF7606EAD1
:1023A00005252C434DF6FF752A400D8906EA0535B3
:1023B0002A434D8806EA05352A43CD88A0F84050C7
:1023C000424DA84202D0424DA84207D1C3F30D03AB
:1023D0008D894FF6FF7606EA85152B43838084832B
:1023E000028470BD828B4FF2FF331A408283828B4E
:1023F0004FF6FF7303EA01231A4382837047F0B557
:102400000C461546002100220026078C4EF6FF7C64
:1024100007EA0C070784818B028C4FF6FF7707EAE7
:10242000043640F6FF4739404FF6FF7707EA0527A5
:102430004FF6FF7C0CEA033C47EA0C0739434DF6A4
:10244000FF773A4046F480573A4381830284F0BDD7
:10245000828B4FF6F3731A408283828B0A43828306
:102460007047F0B50C461546002100220026078C67
:102470004FF6FF6C07EA0C070784818B028C4FF63E
:10248000FF7707EA04264FF60C7739404FF6FF77BF
:1024900007EA03172F4339434FF6FF573A4046F4F4
:1024A00080773A4381830284F0BD028B4FF2FF3381
:1024B0001A400283028B4FF6FF7303EA01231A438B
:1024C000028370470010004000FCFFBF002C014059
:1024D00000340140F0B50C461546002100220026CC
:1024E000078C4FF6EF7C07EA0C070784018B028C00
:1024F0004FF6FF7707EA041640F6FF4739404FF6DC
:10250000FF7707EA033739434FF6FF7707EA0527D6
:1025100039434FF6DF773A4046F010073A430183DC
:102520000284F0BD028B4FF6F3731A400283028BD4
:102530000A4302837047F0B50C461546002100227D
:10254000068C4FF6FE773E400684018B028C4FF6D8
:102550000C7631407E1C06EA03162E4331437E1E64
:10256000324044F00106324301830284F0BD70B56D
:1025700005460C46208850B92389A28861882846E0
:10258000FFF7D9FFE1882846FFF7CCFF25E0208838
:1025900004280AD12389A28861882846FFF79AFF78
:1025A000E1882846FFF781FF17E0208808280AD134
:1025B0002389A28861882846FFF753FFE1882846CF
:1025C000FFF746FF09E02389A28861882846FFF7C4
:1025D00016FFE1882846FFF705FF70BD2DE9F041A1
:1025E00005460C4600260127608808B9022600E04F
:1025F0000026A088012801D1022700E001272088B9
:10260000A0B92389A28861882846FFF794FFE18852
:102610002846FFF787FF23893A4631462846FFF7C9
:1026200059FFE1882846FFF740FF13E02389A2887D
:1026300061882846FFF74EFFE1882846FFF735FFFF
:1026400023893A4631462846FFF775FFE188284638
:10265000FFF768FFBDE8F0810A884B881A438B8832
:102660001A43CB881A430B891A434B891A438B8927
:102670001A43A0F8442070474FF6FF718180002173
:102680000180C1804180017270470021018041803A
:102690008180C180018141818181C1817047002198
:1026A00001804180012181800021C180018170472A
:1026B0000021018041808180C1800181418181812F
:1026C000704721B1028842F00102028004E00288D2
:1026D00040F2FE331A400280704731B1B0F8442016
:1026E00042F40042A0F8442005E0B0F84420C2F3D0
:1026F0000E02A0F8442070471AB183890B438381EE
:1027000002E083898B43838170478182704741EA6D
:102710000203A0F8483070471AB183890B438381C4
:1027200002E083898B438381704701894FF6F872F9
:102730001140018170470A46002101894FF68F73CD
:10274000194011430181704730B504460D462946B2
:102750002046FFF7F0FF208940F00700208130BDC0
:102760002DE9F04104460D4616461F46602D06D160
:102770003B46012231462046FFF7ACFE05E03B46D2
:10278000012231462046FFF7D6FE29462046FFF7B4
:10279000D2FF208940F007002081BDE8F08170B5AC
:1027A0000C4600210189C9B244EA02054FF6FF76C2
:1027B00006EA032635432943018170BD2DE9F04126
:1027C00005460E4617469846002443463A4631468B
:1027D0002846FFF7E4FF2C894FF6F870044044F0D8
:1027E00007044FF68F70044044F070042C81BDE85C
:1027F000F081F0B504460D4616461F463B4632466C
:1028000029462046FFF7CBFF208940F480402081F5
:10281000F0BD0185828270470A460021018840F29E
:102820008F331940114301807047F0B50C461546AF
:102830001E460021002200230189028B038C4FF6E3
:10284000F877394021434FF6FC473A4040F20117F0
:102850003A434FF6DD773B404FF6FF7707EA06171E
:102860002F433B43018102830384F0BD0A460021CC
:10287000018B4FF68F7319401143018370470A464D
:102880000021018B48F6FF7319404FF6FF7303EAEE
:1028900002231943018370470A460021818B4FF6BA
:1028A0008F7319401143818370470A460021818B41
:1028B00048F6FF7319404FF6FF7303EA02231943EA
:1028C0008183704721B1028842F08002028004E0D7
:1028D000028840F27F331A400280704721B182881B
:1028E00042F00402828004E082884FF6FB731A40B3
:1028F0008280704721B1828842F00802828004E021
:1029000082884FF6F7731A408280704721B182881F
:1029100042F00102828004E082884FF6FE731A4082
:10292000828070470A460021018B4FF6F7731940E9
:102930001143018370470A460021018B4FF2FF7358
:1029400019404FF6FF7303EA0223194301837047CE
:102950000A460021818B4FF6F7731940114381839A
:1029600070470A460021818B4FF2FF7319404FF6E2
:10297000FF7303EA02231943818370470A4600214B
:10298000018B4FF6FB7319401143018370470A46D0
:102990000021018B4FF6FF3319404FF6FF7303EA16
:1029A00002231943018370470A460021818B4FF6A9
:1029B000FB7319401143818370470A460021818BC4
:1029C0004FF6FF3319404FF6FF7303EA0223194312
:1029D000818370470A460021018B4FF67F731940AF
:1029E0001143018370470A460021018BC1F30E0198
:1029F0004FF6FF7303EA02231943018370470A4627
:102A00000021818B4FF67F731940114381837047FA
:102A10000A460021818BC1F30E014FF6FF7303EAD2
:102A200002231943818370470A460021018C4FF627
:102A3000FD7319401143018470470A460021018C3F
:102A40004FF6F77319401143018470470A4600217D
:102A5000018C4FF6DF7319404FF6FF7303EA021340
:102A60001943018470470A460021018C4FF67F7399
:102A700019404FF6FF7303EA0213194301847047AC
:102A80000A460021018C4FF6FF5319404FF6FF73A1
:102A900003EA02231943018470470A460021018C8E
:102AA0004FF2FF7319404FF6FF7303EA02231943F5
:102AB000018470470A460021018C4DF6FF731940CE
:102AC0004FF6FF7303EA023319430184704710B5D0
:102AD000038C01248C40A3430384038C02FA01F489
:102AE000A4B22343038410BD10B5038C04248C408E
:102AF000A3430384038C02FA01F4A4B223430384A6
:102B000010BD30B5038C01248C40A343038409B16C
:102B1000082918D100F1180303EB61031B684FF675
:102B20008F74234000F1180404EB6104236000F16A
:102B3000180303EB61031B68134300F1180404EB53
:102B4000610423601FE00B1FC3F34E0400F1180360
:102B50001B5948F6FF7423400C1FC4F34E0500F1C7
:102B6000180463510B1FC3F34E0400F118031B59E3
:102B70004FF6FF7404EA022423430C1FC4F34E05EE
:102B800000F11804635130BD21B1028842F0020205
:102B9000028004E0028840F2FD331A400280704750
:102BA00021B1028842F00402028004E0028840F26F
:102BB000FB331A400280704721B1828842F08002C4
:102BC000828004E082884FF67F731A4082807047CB
:102BD000028840F2F7331A40028002880A430280DA
:102BE000704782884FF68F731A40828082880A432A
:102BF0008280704702894FF6F8731A400281028979
:102C00000A430281704702894FF67F731A4002819E
:102C100002890A4302817047818470478185704729
:102C2000818670470187704781877047A0F8401000
:102C300070470288D2B2028002880A43028070473D
:102C40000146888E70470146088F70470146888F7D
:102C500070470146B1F8400070470146888C7047C4
:102C60000146088D704702460020138A0B400BB1C5
:102C7000012000E000207047CA430282704730B54F
:102C80000246002000230024158A05EA01039589E5
:102C900005EA010413B10CB1012000E0002030BDB1
:102CA000CA430282704700000CB5002001900090DA
:102CB0004748006840F480304549086000BF4448F8
:102CC000006800F4003000900198401C01900098CA
:102CD00018B90198B0F5A06FF1D13D48006800F433
:102CE000003010B10120009001E000200090009819
:102CF000012844D13748006840F010003549086089
:102D00000846006820F0030008600846006840F0AC
:102D1000020008602E4840682D4948600846406817
:102D200048600846406840F4806048600846406853
:102D300020F47C1048600846406840F4E810486081
:102D40000846006840F08070086000BF20480068B6
:102D500000F000700028F9D01D48406820F0030002
:102D60001B4948600846406840F00200486000BFC8
:102D70001748406800F00C000828F9D101E000BFB6
:102D8000FEE70CBD10B5FFF78FFF10BD10B5104862
:102D9000006840F001000E490860084640680E498E
:102DA00008400B494860084600680C49084008493B
:102DB00008600846006820F48020086008464068E3
:102DC00020F4FE00486000208860FFF7DBFF10BDA4
:102DD00000100240002002400000FFF8FFFFF6FE56
:102DE000F0B480EA0102D40F4200B2EB410F02D2EC
:102DF0000246084611464A0042D0C30DDDB2C1F377
:102E0000C752AD1A202D35DAC1F3160141F4000284
:102E100004B15242C5F1200602FA06F12A411044DB
:102E2000B3EBD05F23D0C4B1012DA0EBC35009DCBC
:102E3000F0BC4FF0004202EAC352DBB200F50000E2
:102E400000F000BB400000F1807000EBC350A0F127
:102E5000807040EAD170490009E0490841EAC07138
:102E6000A0EBC35000F50000400800EBC350F0BCDD
:102E700000F0DFBA6142012202EB4101001BF6E7DC
:102E8000F0BC704781F00041AAE780F00040A7E75E
:102E900080EA010210B502F00043400022D04A004F
:102EA0001FD0010E01EB1261C0F35600C2F35602AF
:102EB00040F4000042F40002A0FB022000047F392D
:102EC000140400D0401C50EA124001D44000491EB6
:102ED000C2B20C0604EBD010401C4008802A02D07D
:102EE00003E0002010BD20F00100002900DA0020DE
:102EF000184310BD2DE9FE4F804681EA0300C00F44
:102F00000C46009021F0004123F00045B8EB020090
:102F1000A94105D24046214690461C460B46024632
:102F200023F00040104347D0270DC7F30A00C3F336
:102F30000A510290401A019040286BDAC3F3130043
:102F400040F4801B0098924620B10023D2EB030A84
:102F500063EB0B0B01985946C0F14002504600F05C
:102F600037FA06460D4650465946019A00F04FFA88
:102F700010EB08006141002487EA115284EAE773EC
:102F80001A4340D0009A62B3019A012A4FEA0752CD
:102F900015DC001B61EB02014FF0004202EA075210
:102FA000CDE90042001C41F5801132462B4600F06D
:102FB00084FA03B0BDE8F08F40462146F9E7001BD4
:102FC00061EB0201001C41F5801300185B412018E1
:102FD000A2F5001747EB030140EAD570B6196D4121
:102FE00011E06D084FEA360645EAC0754FEA075210
:102FF000001B61EB0201001C41F5801149084FEAFA
:1030000030000019514132462B4603B0BDE8F04F65
:1030100000F046BA0098012240000023D0EB0202E3
:1030200063EBE073009821464FEAE074B8EB0000D0
:1030300061EB0401E9E783F000435BE781F00041C5
:1030400058E72DE9FE4F81EA030404F0004421F023
:10305000004100944FF0000B23F0004350EA0104BC
:103060005ED052EA03045BD0C3F30A54C1F30A559D
:103070002C44A4F2F3340194A0FB0254C1F31301D5
:1030800041F48011C3F3130343F4801301FB0244A2
:1030900000FB034E840A970A44EA815447EA8357A7
:1030A000A4FB076802958D0A05FB07854FEA932C60
:1030B00004FB0C542705029D4FEA065847EA1637D1
:1030C000B5EB08056EEB070C870E920E47EA8117E9
:1030D00042EA8312A7FB0201B6EB0B0164EB00048A
:1030E0002B0D43EA0C335E1844EB1C50DA46514674
:1030F000E7FB0201C5F313044FEA0B3343EA145311
:103100004FEA0432019C43EA0603A4F10C04029442
:10311000009CCDE900B400F0D0F903B0BDE8F08F19
:1031200000200146F9E72DE9F04D81EA030404F09F
:10313000004B21F0004514464FF0000A23F00041F7
:1031400050EA050220D054EA01021DD0C5F30A5707
:103150000246C5F31303C1F31300C1F30A5640F44A
:10316000801543F48013A7EB0608101BD64608F21F
:10317000FD3873EB050002D308F1010801E0921855
:103180005B41B8F1000F03DA00200146BDE8F08D85
:1031900000204FF48011064684460EE0171B73EBA7
:1031A000050705D3121B63EB050306434CEA010C2C
:1031B00049084FEA300092185B4150EA0107EDD10F
:1031C00052EA030012D082EA040083EA05010843B0
:1031D00005D0101BAB4106D20122002306E00022DD
:1031E0004FF0004302E06FF0010253101AEB0600AB
:1031F0004CEB085110EB0A0041EB0B01BDE8F04D20
:1032000000F04EB9C10F80EAE0700844CA07962367
:10321000002100F017B996230022114600F012B9E0
:103220000EB5C10F80EAE0700844CA07002140F2E1
:1032300033438DE80E000A460B4600F03EF903B01A
:1032400000BD0EB540F2334102910021CDE90011DD
:103250000A460B4600F031F903B000BD00F0004211
:1032600020F00040C10DC0F3160040F400007F299B
:1032700001DA00207047962903DCC1F19601C840AD
:1032800001E096398840002AF4D04042704770B57A
:10329000C1F30A5201F000450024C1F3130140F2CA
:1032A000FF3341F480119A4201DA002070BD40F2F0
:1032B00033439A42A2F2334203DC524200F097F8C1
:1032C00000E090402C43F1D0404270BD00F000423D
:1032D00030F000400AD0C10D01F56071C0F3160056
:1032E00042EA0151C20840071143704700200146DD
:1032F0007047000030B5002904DB4FF00044404225
:1033000064EB0101002B04DB4FF00044524264EBFC
:1033100003038B4208BF824230BD000030B5002954
:1033200004DB4FF00044404264EB0101002B04DB5E
:103330004FF00044524264EB0303994208BF9042AD
:1033400030BD000001F0004330B421F0004150EAEC
:10335000010206D00A0DA2F56072C1F31301002A22
:1033600002DC30BC00207047440F44EAC104C100B5
:10337000E01830BC00EBC25000F05BB8002801DB65
:10338000C0F10040002901DBC1F1004181427047DA
:10339000002801DBC0F10040002901DBC1F1004140
:1033A0008842704730B50B46014600202022012498
:1033B00009E021FA02F59D4205D303FA02F5491B03
:1033C00004FA02F52844151EA2F10102F1DC30BD19
:1033D000202A04DB203A00FA02F1002070479140D5
:1033E000C2F1200320FA03F3194390407047202ACA
:1033F00004DB203A21FA02F00021704721FA02F39F
:10340000D040C2F120029140084319467047202A5B
:1034100006DBCB17203A41FA02F043EAE07306E0FC
:1034200041FA02F3D040C2F120029140084319460C
:1034300070470029A8BF7047401C490008BF20F012
:103440000100704710B4B0FA80FC00FA0CF050EAAA
:10345000010404BF10BC704749B1CCF1200421FA2B
:1034600004F411FA0CF118BF012121430843A3EB26
:103470000C01CB1D4FEA00614FEA102042BF002033
:1034800010BC704700EBC35010440029A4BF10BC0F
:103490007047401C490008BF20F0010010BC704775
:1034A00010B5002B08DA401C41F1000192185B4175
:1034B0001A4301D120F0010010BD2DE9F04D9246D4
:1034C0009B4611B1B1FA81F202E0B0FA80F22032EB
:1034D0009046FFF77DFF04460F4640EA0A0041EAA6
:1034E0000B0153465A46084313D0114653EA0100D4
:1034F00019D0C8F140025046FFF779FF05460E4645
:10350000504659464246FFF763FF084305D0012065
:1035100004E020463946BDE8F08D0020054346EA28
:10352000E0762C4337430A986305E40AA0EB0800D1
:103530000022FD0A44EA47540A3002D50020014621
:10354000E9E7010510196941DDE9084500196941FC
:10355000BDE8F04DA4E770B521F0004303430CD063
:10356000C1F30A550024D5EB040564EB0403D61718
:10357000AD1AB34102DB0020014670BD201841EBBB
:10358000025170BD064C074D06E0E06840F00103B3
:1035900094E8070098471034AC42F6D3FCF7CCFD12
:1035A000C83F0008E83F000870B58C1810F8015BB0
:1035B00015F0070301D110F8013B2A1106D110F8CC
:1035C000012B03E010F8016B01F8016B5B1EF9D1D0
:1035D0002B0705D40023521E0DD401F8013BFAE756
:1035E00010F8013BCB1A921C03E013F8015B01F8C1
:1035F000015B521EF9D5A142D8D3002070BD000056
:103600000FB4054B10B503A9044A029800F048FB1B
:1036100010BC5DF814FB0000E50500084C0100201B
:10362000490050EAC12018BF04204A0D18BF40F0DD
:10363000010040F2FF72B2EB515F08BF40F00200A0
:10364000012808BF052070472DE9F74F144696B0B2
:103650000021C4E902111799089121F00045CA49D7
:103660008D4206DC1799C4E9000119B00020BDE8BD
:10367000F08FC649DFF818A3A9423CDD0899C54E72
:103680000029C54FC54A1799534619DDFFF7D3FCEA
:10369000554506D0C24AC34BFFF7CDFCC4E9000133
:1036A0000AE04FF0D352BF4BFFF7C5FC32463B4612
:1036B000FFF7C1FCC4E9000119B00120BDE8F08F9B
:1036C000FFF718FC554506D0B54AB64BFFF712FC7C
:1036D000C4E900010AE04FF0D352B24BFFF70AFCF5
:1036E00032463B46FFF706FCC4E9000119B04FF033
:1036F000FF30BDE8F08FAC49A942179978DB21F083
:1037000000488346A94AAA4B4146FFF79AFC00228B
:10371000A84BFFF7EFFBFFF7BAFD0990FFF780FD1D
:1037200006460F469D4A5346FFF78BFC5A464346D2
:10373000FFF784FC80468A46994A9A4B30463946C0
:10374000FFF77FFC2A0D01250B9242465346FFF7F7
:1037500075FC032DC4E9000139D00B98C1F30A515F
:10376000401A05EB45111139814230DA9248C346BF
:10377000784400EB0510CDF81CA00C90D0E9002394
:1037800030463946FFF75DFCCDE9020102460B46A3
:1037900058460799FFF74FFC80468A4602460B467B
:1037A00058460799FFF747FCDDE90223FFF743FC82
:1037B00083460C9803913946D0E902233046FFF73F
:1037C00040FC5A46039BFFF736FC6D1CBDE708988A
:1037D0000028A2BF099819B0BDE8F08F616881F098
:1037E00000416160099819B04042BDE8F08FFFE7E1
:1037F000C1F3130141F480110E911799C1F30A51DD
:10380000A1F2F532511102F01F08C8F12002129204
:1038100000220C920D92694A7A4402EB810101F177
:10382000140C0DA95FF00607DCF80020DCF804504A
:1038300002FA08F3129AD1F800A025FA02F21A430C
:103840000E9BA2FB0356A2FB00329A4415449A45F4
:1038500034BF4FF0010B4FF0000B51F8043C05EB67
:103860000B0E7344954234BF012200221644BBF173
:10387000000F02D0AB4202D903E0AB4201D20122D9
:1038800000E0002241F808A93244E1E801237F1E4C
:10389000ACF1040CC8D10898DDE90A6500F10050CC
:1038A000800F11900898099F8000FFF7B9FC8046AF
:1038B0008A463846FFF7C5FC6FF01D02FFF74BFE46
:1038C000074630460591FFF7BCFC6FF03D02FFF75D
:1038D00042FECDE903102846FFF7B3FC6FF05D020E
:1038E000FFF739FE064602460B460191DDE903105B
:1038F000FFF700FB3A46059BFFF7FCFA42465346AA
:10390000FFF7F8FA00200D46834642465346FFF77C
:1039100092FB3A46059BFFF78EFBDDE90332FFF78A
:103920008AFB3246019BFFF789FBDFF89880244A27
:103930004346FFF786FB06460F46234A234B58466D
:103940002946FFF77EFB32463B46FFF7D3FA0F4688
:1039500006464FF0A842434658462946FFF771FBFA
:1039600032463B46FFF7C6FA179A12F0004F04D0D2
:10397000119A81F0004152421192C4E9000111985C
:1039800019B0BDE8F08F0000FB21E93F7CD902406F
:10399000FB21F93F7370032E8A19A33B00004054AA
:1039A0003163621A61B4D03DFB21394183C8C96DCE
:1039B000305FE43F0000E03F64070000EC060000D9
:1039C000182D4454FB21F93D3326A611460B113C1A
:1039D0002DE9FF4D21F0004807460C46B8F1795F0C
:1039E00008DAFFF754FC002801BF0020324904B078
:1039F000BDE8F08D3A46234610461946FFF721FBF5
:103A0000054602462D480E460B460621784400F036
:103A10005DF82A463346FFF714FBDDE902238246B0
:103A20008B4638462146FFF70CFB04460F465246AC
:103A30005B4628463146FFF704FB22463B46FFF72C
:103A4000FAFA07468A464FF0FF3228463146FFF71A
:103A500082FD1B4A90450ADA3A465346FFF7EBFAD5
:103A600004B00022BDE8F04D134BFFF7E7BA154A4A
:103A70004245A8BFA8F500154FF00004B8BF124D8D
:103A800022462B46FFF7D7FA0646884622462B46A3
:103A900000200949FFF7CFFA04460D463A4653463F
:103AA00030464146FFF7C7FA04B022462B46BDE830
:103AB000F04DFFF7C3BA00000000F03F980400008B
:103AC0003333D33F0000E93F0000D23F2DE9F041FE
:103AD0004F1E00EBC7010446D1E9000115461E4602
:103AE00037F006020DD02A463346FFF7AAFA7F1EAA
:103AF00004EBC703D3E90023FFF7FCF937F0060214
:103B0000F1D1022F25D0042F13D0062F18BFBDE806
:103B1000F0812A463346FFF794FAD4E90A23FFF7E7
:103B2000E9F92A463346FFF78CFAD4E90823FFF770
:103B3000E1F92A463346FFF784FAD4E90623FFF772
:103B4000D9F92A463346FFF77CFAD4E90423FFF774
:103B5000D1F92A463346FFF774FAD4E90223FFF776
:103B6000C9F92A463346FFF76CFAD4E90023BDE8C9
:103B7000F041FFF7BFB900002DE9FF4D054621F0E8
:103B8000004084B00C46B0F1795F0BDA2846FFF7AD
:103B900047FD042808BF00F065F8284608B0214614
:103BA000BDE8F08D2A460B461046FFF74AFA064656
:103BB0000F462A462346FFF744FA804626488A469F
:103BC00032463B4605217844FFF780FF8346109834
:103BD000029160B3214A224B40465146FFF731FA29
:103BE000CDE900015A4640465146029BFFF729FAAB
:103BF00082468846DDE906014FF0FF32FFF7ABFC55
:103C000052464346FFF717FA32463B46FFF719FA8A
:103C1000DDE90623FFF70FFADDE90023FFF70BFAD2
:103C200008B02A462346BDE8F04DFFF707BA0B4619
:103C30005A4630463946FFF704FA084A084BFFF760
:103C400059F942465346FFF7FCF908B02A46234685
:103C5000BDE8F04DFFF74EB9D60300004955555564
:103C60005555C5BF024A00201107FFF774BC00007C
:103C700001FDFFFF02E008C8121F08C1002AFAD1A7
:103C800070477047002001E001C1121F002AFBD1DC
:103C90007047000001490860704700005001002093
:103CA0002DE9FF4F89B09B460446002506E02528F4
:103CB0000BD05A460B999047641C6D1C2078002845
:103CC000F5D10DB02846BDE8F08F0027B846012297
:103CD000474900E0074314F8013F203B02FA03F094
:103CE0000842F7D120782E2819D114F8010F47F097
:103CF00004072A280ED06FF02F022078A0F130019F
:103D000009290CD808EB880102EB410100EB0108FE
:103D1000641CF2E70A98641C50F8048B0A9020781F
:103D20000028CED0642808D0692806D075281ED077
:103D30005A460B9990476D1C58E00A994FF00A09B2
:103D400001C90A91002802DA40422D2102E039051A
:103D500004D52B218DF82010012103E0F90704D0B0
:103D60002021F7E78A4608AE0DE00021FAE70A991C
:103D70004FF00A0901C90A91F7E74946FFF712FB1C
:103D8000303106F8011D0028F7D1ADEB060000F137
:103D90002009780701D44FF00108C84502DDA8EBDF
:103DA000090000E000208046002706E008A85A46E7
:103DB000C05D0B9990476D1C7F1C5745F6DB04E0F6
:103DC00030205A460B9990476D1CB8F10001A8F1BC
:103DD0000108F5DC05E016F8010B5A460B999047EF
:103DE0006D1CB9F10001A9F10109F4DC641C65E75F
:103DF0000928010000B5294B21F0004287B09A4202
:103E000003DC00221346009233E0254B9A420DD189
:103E100068B94FF00100FFF73DFF002207B01346DD
:103E2000104611465DF804EBFFF77DB906DB07B0DD
:103E30004FF001025DF804EBFFF78DBB02AAFFF71C
:103E400003FC10F003014FF001000DD0012914D044
:103E500002291AD00DF1080C9CE80F00FFF7B8FDFD
:103E600007B081F0004100BD0DF1080C00909CE806
:103E70000F00FFF781FE07B000BD0DF1080C9CE8B4
:103E80000F00FFF7A5FD07B000BD0DF1080C009075
:103E90009CE80F00FFF770FEE2E70000FB21E93F1E
:103EA0000000F07F000000004C5555555555A53FCA
:103EB0007751C1166CC156BF9015CB19A001FA3EBF
:103EC000AD529C804F7E92BEC4B1B4BD9EEE213EE9
:103ED000D43888BEE9FAA8BD00004054FB21F93F60
:103EE0003163621A61B4D03D0000601A61B4D03D04
:103EF0007370032E8A19A33B0000002E8A19A33B7E
:103F0000C14920259A837B39000000000000000091
:103F10006E83F9A22915444ED15727FCC0DD34F534
:103F2000999562DB4190433CAB6351FE61C5BBDEBA
:103F30003A6E24B7E0D24D42EA2E49061C92D109CE
:103F40001CEB1DFE3EA729B1F53582E88444BB2E4B
:103F500026709CE9417E5FB439D69139F439538398
:103F60008B5F849C3B28F9BDFF97F81F0F9805DEF7
:103F70008B112FEF1F6D0A5ACF7E366DB709CB27F5
:103F8000663F464F2DEA5F9EC7BA27757BF1E5EB8A
:103F9000F739073DEA92528AB15FFB6B085D8D1FCE
:103FA000A6F810111111813FD561C119A0012ABFD6
:103FB0007DFEB157E31DC73EEB9C2B8AE6E55ABE5A
:103FC0007CD5CF5A3AD9E53DE83F000800000020F3
:103FD00054010000A83500082040000854010020CA
:103FE00084020000843C0008011CA308083201324E
:103FF0001913B8011B20C2041ACC04119920B90C62
:10400000011B05BDC3F548401C409C460442C62D1B
:1040100001020304048009060708090204060800D7
:0400000508000131BD
:00000001FF
